{
  "_format": "hh-sol-artifact-1",
  "contractName": "SplitPay",
  "sourceName": "contracts/SplitPay.sol",
  "abi": [
    {
      "inputs": [
        {
          "internalType": "uint256",
          "name": "expected",
          "type": "uint256"
        },
        {
          "internalType": "uint256",
          "name": "provided",
          "type": "uint256"
        }
      ],
      "name": "AmountMismatch",
      "type": "error"
    },
    {
      "inputs": [],
      "name": "LengthMismatch",
      "type": "error"
    },
    {
      "inputs": [
        {
          "internalType": "uint256",
          "name": "index",
          "type": "uint256"
        }
      ],
      "name": "ZeroRecipient",
      "type": "error"
    },
    {
      "anonymous": false,
      "inputs": [
        {
          "indexed": true,
          "internalType": "address",
          "name": "payer",
          "type": "address"
        },
        {
          "indexed": false,
          "internalType": "uint256",
          "name": "total",
          "type": "uint256"
        },
        {
          "indexed": false,
          "internalType": "uint256",
          "name": "nRecipients",
          "type": "uint256"
        }
      ],
      "name": "Paid",
      "type": "event"
    },
    {
      "anonymous": false,
      "inputs": [
        {
          "indexed": true,
          "internalType": "uint256",
          "name": "index",
          "type": "uint256"
        },
        {
          "indexed": true,
          "internalType": "address",
          "name": "to",
          "type": "address"
        },
        {
          "indexed": false,
          "internalType": "uint256",
          "name": "amount",
          "type": "uint256"
        },
        {
          "indexed": false,
          "internalType": "bool",
          "name": "ok",
          "type": "bool"
        }
      ],
      "name": "PaidOne",
      "type": "event"
    },
    {
      "inputs": [
        {
          "internalType": "address[]",
          "name": "recipients",
          "type": "address[]"
        },
        {
          "internalType": "uint256[]",
          "name": "amounts",
          "type": "uint256[]"
        }
      ],
      "name": "splitExact",
      "outputs": [],
      "stateMutability": "payable",
      "type": "function"
    }
  ],
  "bytecode": "0x608060405234801561001057600080fd5b5061062a806100206000396000f3fe60806040526004361061001e5760003560e01c8063c715b92f14610023575b600080fd5b61003d600480360381019061003891906103d2565b61003f565b005b600084849050905082829050811415806100595750600081145b15610090576040517fff633a3800000000000000000000000000000000000000000000000000000000815260040160405180910390fd5b6000805b828110156100c7578484828181106100af576100ae610453565b5b90506020020135820191508080600101915050610094565b5034811461010e5780346040517fce6b173b00000000000000000000000000000000000000000000000000000000815260040161010592919061049b565b60405180910390fd5b60005b828110156102b457600087878381811061012e5761012d610453565b5b90506020020160208101906101439190610522565b9050600073ffffffffffffffffffffffffffffffffffffffff168173ffffffffffffffffffffffffffffffffffffffff16036101b657816040517fef28bd440000000000000000000000000000000000000000000000000000000081526004016101ad919061054f565b60405180910390fd5b60008173ffffffffffffffffffffffffffffffffffffffff168787858181106101e2576101e1610453565b5b905060200201356040516101f59061059b565b60006040518083038185875af1925050503d8060008114610232576040519150601f19603f3d011682016040523d82523d6000602084013e610237565b606091505b505090508173ffffffffffffffffffffffffffffffffffffffff16837fcff2d25ff18ad0c65427ae0fc7a406e0d82bf27f590054d28c54632d6f767d8689898781811061028757610286610453565b5b905060200201358460405161029d9291906105cb565b60405180910390a350508080600101915050610111565b503373ffffffffffffffffffffffffffffffffffffffff167fdf9a51129930649214df58f542322c245372c6f2fa6fc3c9b40d927c597cd23034846040516102fd92919061049b565b60405180910390a2505050505050565b600080fd5b600080fd5b600080fd5b600080fd5b600080fd5b60008083601f84011261033c5761033b610317565b5b8235905067ffffffffffffffff8111156103595761035861031c565b5b60208301915083602082028301111561037557610374610321565b5b9250929050565b60008083601f84011261039257610391610317565b5b8235905067ffffffffffffffff8111156103af576103ae61031c565b5b6020830191508360208202830111156103cb576103ca610321565b5b9250929050565b600080600080604085870312156103ec576103eb61030d565b5b600085013567ffffffffffffffff81111561040a57610409610312565b5b61041687828801610326565b9450945050602085013567ffffffffffffffff81111561043957610438610312565b5b6104458782880161037c565b925092505092959194509250565b7f4e487b7100000000000000000000000000000000000000000000000000000000600052603260045260246000fd5b6000819050919050565b61049581610482565b82525050565b60006040820190506104b0600083018561048c565b6104bd602083018461048c565b9392505050565b600073ffffffffffffffffffffffffffffffffffffffff82169050919050565b60006104ef826104c4565b9050919050565b6104ff816104e4565b811461050a57600080fd5b50565b60008135905061051c816104f6565b92915050565b6000602082840312156105385761053761030d565b5b60006105468482850161050d565b91505092915050565b6000602082019050610564600083018461048c565b92915050565b600081905092915050565b50565b600061058560008361056a565b915061059082610575565b600082019050919050565b60006105a682610578565b9150819050919050565b60008115159050919050565b6105c5816105b0565b82525050565b60006040820190506105e0600083018561048c565b6105ed60208301846105bc565b939250505056fea26469706673582212207ee4e84433e35ed461aa95493206563ce81f7c455baca5d08abd63cc58974cdf64736f6c63430008180033",
  "linkReferences": {},
  "deployedLinkReferences": {}
}